:020000041000EA
:1000000000B5324B212058609868022188439860DF
:10001000D860186158612E4B002199600221596106
:100020000121F02299502B49196001219960352056
:1000300000F044F80222904214D00621196600F024
:1000400034F8196E01211966002018661A6600F04E
:100050002CF8196E196E196E052000F02FF8012189
:100060000842F9D1002199601B49196000215960AB
:100070001A491B48016001219960EB211966A021F2
:10008000196600F012F800219960164914480160C1
:100090000121996001BC002800D000471248134993
:1000A000086003C880F30888084703B5996A0420EC
:1000B0000142FBD001200142F8D103BD02B5186610
:1000C0001866FFF7F2FF186E186E02BD00000240BE
:1000D000000000180000070000035F00212200005C
:1000E000F4000018222000A00001001008ED00E03C
:1000F00000000000000000000000000074B24E7A12
:1001000000200420F7010010C3010010C5010010F9
:10011000C1010010C1010010C1010010C101001097
:10012000C1010010C1010010C1010010C701001081
:10013000C1010010C1010010C9010010CB01001065
:10014000CD010010CD010010CD010010CD01001037
:10015000CD010010CD010010CD010010CD01001027
:10016000CD010010CD010010CD010010CD01001017
:10017000CD010010CD010010CD010010CD01001007
:10018000CD010010CD010010CD010010CD010010F7
:10019000CD010010CD010010CD010010CD010010E7
:1001A000CD010010CD010010CD010010CD010010D7
:1001B000CD010010CD010010CD010010CD010010C7
:1001C00000BE00BE00BE00BE00BE00BE00F04BF888
:1001D000103800BEF2EB88716C2F0010942F0010C5
:1001E0003402001090A31AE700202149086006C8D5
:1001F00081F3088810471F48006800282FD10DA4FC
:100200000ECC002902D000F012F8F9E71A491B4A77
:10021000002000E001C19142FCD1194988471949E9
:1002200088471949884700BEFDE701C901C29A42C3
:10023000FBD37047942F0010C00000202C07002033
:1002400000360010000004200000042000360010DA
:1002500000100420001004200000000070470B482C
:1002600001F08EFF0047EFF30580C0B27047000039
:1002700008ED00E0000000D030070020240B002033
:100280000919001089060010051A001057560000C1
:1002900006005250ABB36053D02E001006005250EF
:1002A000861C0302E02E0010060052505422A29D2C
:1002B000EC2E001005005250DE65F4680036001088
:1002C000F8B5C0460448054B10B5834203D0044B33
:1002D000002B00D0984710BD2C0700202C070020D1
:1002E0000000000006480749091A8B10C90FC918F9
:1002F00010B5491003D0044B002B00D0984710BD17
:100300002C0700202C0700200000000010B5074C2F
:100310002378002B09D1FFF7D5FF054B002B02D026
:10032000044800E000BF0123237010BD3008002006
:1003300000000000702E0010054B10B5002B03D0FC
:100340000449054800E000BFFFF7CCFF10BDC046E0
:100350000000000034080020702E0010464BF0B55D
:10036000D6469A46454B46464F4699468023C0B5E9
:100370005B05D0269846424D36066420002100F0E9
:100380003BFF434673612C78002C31D10823B361C5
:10039000073B73613B4B64001B78072B37D8032B5B
:1003A00053D8012B42D94B461F1901223900364838
:1003B00002F04EFD2B780134013301375A00A2427E
:1003C000F3DC304A2F491278DBB20132D2B20A7024
:1003D0002B70102A01D10F3A0A70042B01D100238F
:1003E0002B7080239B037361B3614346B361C4E701
:1003F000012C39D0022C3BD0032CCBD10423B36188
:10040000043373611F4B64001B78072BC7D9534615
:100410001F19012239001C4802F01AFD2B78013403
:10042000013301375A00A242F3DCCAE7174B1F1908
:1004300001223900144802F00BFD2B7801340133FE
:1004400001375A00A242F3DCBBE7114B1F1901220E
:1004500039000D4802F0FCFC2B78013401330137E0
:100460005A00A242F3DCACE70223B461736191E766
:100470000423B46173618DE7E8080020D8080020E8
:10048000180900202802002000C00340D0080020E6
:10049000E0080020F0B5C64600B502F0F3FA0822E5
:1004A0000021304802F0D6F9082200212E4802F03F
:1004B000D1F9082200212D4802F0CCF908220021B0
:1004C0002B4802F0C7F92B492B4802F061FB0521AC
:1004D000112000F0C1FA0121122000F0BDFA012123
:1004E000132000F0B9FA192000F0FAFA152000F0F4
:1004F000F7FA1B2000F0F4FA1C2000F0F1FA0020BB
:1005000000F0EEFA012000F0EBFA022000F0E8FA29
:10051000032000F0E5FAD02380208021802280256E
:100520001B06800409055205586290465962AD03C6
:100530005A6280225D620127022604250824920265
:100540005F625E625D625C625A625A6142469F61AE
:100550009E619D619C61586159619A6104BC90469D
:10056000F0BDC046D0080020D8080020E0080020D8
:10057000E808002040420F0000C0034010B500F022
:10058000BBFE002905D0FA220023920001F090FE64
:1005900010BDFA21890001F049FEF9E7F0B5C82B3A
:1005A00044D81C1C0F2B4CD8E3B201249E105D10C4
:1005B00026402540DF101C4000239C46642804D8B8
:1005C000031C03283BD8DBB29C460023642903D8D4
:1005D0000B1C032931D8DBB2642A05D8111C032A6D
:1005E00029D8C9B289005B189B006344DA10D10096
:1005F0005B1A8021194120484BB2815C002F32D117
:10060000994381541D48815C002E1CD01943C9B206
:1006100081541B48815C002D1BD199438154194999
:10062000885C002C1CD198438854F0BD0024002520
:1006300000260027C0E70321D3E70323CBE70323EA
:10064000C1E70F24B0E7994381540D48815C002D28
:10065000E3D01943C9B281540A49885C002CE2D026
:100660001843C0B2E0E71943C9B281540348815C22
:10067000002ECBD1E7E7C046E8080020E0080020C4
:10068000D8080020D0080020F0B5DE4657464E4678
:100690004546E0B593B0FFF7FDFE02F05DFA1F217D
:1006A0001A2000F0D9F9002200211A2000F0ECF9FC
:1006B00000211A2000F000FAE022DF4CD20123686A
:1006C000DE481340DE4A136002F022FBFFF756FFBC
:1006D00003000420DB49079A086080214900206854
:1006E0000842FCD0606808AD0004000C801807AA1E
:1006F00094466044C01802F031FBD34B0D93D34BAA
:100700000E93D34B0F93D34B109302F031FB072181
:1007100001F064FD8A46FFF731FF0390FFF72EFFDB
:100720002423EB5C544698460723C2469B46FFF7BA
:1007300025FF039BC01A6428F9D95346019300236F
:10074000984653460433524604935B461340059340
:100750006B461B7C019A02935B46134056469946B2
:10076000002357460093002C00D14BE1012C00D10F
:100770003FE1022C00D130E1032C00D119E1042C1F
:1007800000D1FEE0052C00D1EAE0062C00D1D6E035
:10079000009B013701330093FFB2042BE3D10136F4
:1007A000029BF6B2B342DBD101239C46019BE0449D
:1007B0000133DBB201934346042BC9D153465A4659
:1007C00001331A4004925A461A402423EA54002363
:1007D000924698460292002301935B46029A56463F
:1007E00013409946002300934B465746B1461E00DE
:1007F000002C00D18DE0012C00D181E0022C74D0BE
:10080000032C5FD0042C43D0052C30D0062C1ED0F6
:10081000009B013701330093FFB2042BE8D1330072
:100820004E469946019B013601330193F6B2042BE3
:10083000D8D1033B9C46029BE0440133DBB20293D8
:100840004346042BC7D1039B643303936FE7AB1973
:100850001A7D5B463B40EB18197D049B5208EB1850
:10086000187D490804234008FFF798FED0E7AB192C
:100870004A46197D5B461340EB181A7D43464908EA
:1008800052085218D8B252080423FFF787FEBFE778
:100890006A465B461278584605924A463B40EB183A
:1008A000A9191B7D097D10402818007D5B084908A7
:1008B000C91849084008C018059A04234008FFF7E2
:1008C0006DFEA5E7AB191A7D49465B460B40EB1858
:1008D0001B7D52085B08D2186B46197943465208B3
:1008E000D8B20423FFF75AFE92E7AB191A7F197D9D
:1008F00043465208D8B249080423FFF74FFE87E762
:100900004A465B461340EB181A7DAB191B7F520811
:10091000E0E76B461B784A460593AB19197F5B46A7
:100920003B40EB18187F490840080918584610400A
:100930002818007D1B7D490840085B08BBE74B4633
:10094000EB181A7D5B463B40EB18197D059B52085E
:10095000EB18187D490800234008FFF71FFE17E732
:100960004B46EB18197D5B463340EB181A7D434626
:10097000490852085218D8B252080023FFF70EFE59
:1009800006E75B46584649466A463B403040EB180E
:10099000691828181B7D097D007D5B0849084008FF
:1009A000C918C0181278002349084008FFF7F6FD5F
:1009B000EEE64B46EB181A7D5B463340EB181B7D89
:1009C00052085B08D2185346F11A43465208D8B26F
:1009D000C9B20023FFF7E2FDDAE64B46EB181A7FB7
:1009E000197D43465208D8B249080023FFF7D6FDC7
:1009F000CEE65B463340EB181A7D4B46EB181B7F67
:100A00005208DEE76B461A784B46EB18197F5B46B7
:100A10003B40EB18187F49084008091858463040F9
:100A20002818007D1B7D40085B08C018490800237A
:100A30004008FFF7B3FDABE600C004405D030010C3
:100A400000D0044000E0044004070807040100014E
:100A50000807040100010407094A83009446402264
:100A6000634410B51C68C0006240C024144080225A
:100A7000520113431C60034B9C466044416010BD0F
:100A800004C00140004001400A4B80009C46042302
:100A90006044002901D00C230821002A00D10B005A
:100AA000026853400C221A4080235B011843026005
:100AB0007047C04604C00140084B80009C4660441B
:100AC000002905D080239B01184340230360704711
:100AD000C0239B01184340230360F8E704C0014092
:100AE0000123D0228340120693629361094A830056
:100AF0009446402263441968C0004A40C021114016
:100B00008022520113431960034B9C460523604425
:100B10004360704704C0014000400140F8B5EFF366
:100B2000108772B60E4E3368002BFCD0BFF35F8F78
:100B3000CB08C4180725A446C45C01230D40AB4074
:100B400018002040234208D1624623431370BFF3AC
:100B50005F8F306087F31088F8BD100000F054FFFD
:100B60002C0100D0024B18688007C00F7047C046A8
:100B700000C006400021044B044ABFF35F8F02C34C
:100B80009342FAD17047C046000100D0800100D0E6
:100B9000044A1078431CDBB2172B00D910231370C2
:100BA0007047C04629020020F8B5040006200D0059
:100BB00001F0A6F8002845D02B4B2C49E3185A42E7
:100BC00053418022D20394465B421340284A634437
:100BD0001360284A136018008A689043FBD1224BA7
:100BE0008021E3185A425341234A5B004900062002
:100BF000995201F085F82900C00001F017FBC309E4
:100C000021D140270122260080256262A3620023B1
:100C10002C36AD0135432B60062001F071F8390008
:100C2000800001F003FB6023E26A53406E221A4009
:100C300080235B0133431A60104B236310232B6026
:100C40000D3BA364F8BD0E4A934203D900230D4F18
:100C50000D4AD8E77F221040013040089F011A005A
:100C60003F180300CFE7C0460080FCBF00C0004033
:100C700000E0004000F000401C09002001030000DB
:100C8000FEFF0000C0FF3F00FFFF000083680B482D
:100C900010B5844661446244090112019A1859183A
:100CA00054684B6801209C4201D802D00020C0B299
:100CB00010BD12680B689A42F9D8F7E7FFFFFF0FE3
:100CC0000A4B1968EFF3108072B60A68002AFCD04C
:100CD000BFF35F8F1B68BFF35F8F00221A6080F342
:100CE000108840BF002000217047C0460009002046
:100CF000F8B557464E464546DE46E0B5434D81467B
:100D00008A466A68EFF3108872B61368002BFCD02D
:100D1000BFF35F8F2E68B47B002C3ED06700336832
:100D20003F19033FDA195378B373002B00D1F373E3
:100D30000023937053701370A968354A8C46494656
:100D4000A218120162441160514651603149D360CA
:100D500091603268D219937053701370737B9B4605
:100D6000002B35D022001900B068736898473268AC
:100D7000002820D05B4658465B005B44D719033BF4
:100D8000B870D118D35C002B00D07B705B460C7020
:100D900073735C451DD0002626E06B68BFF35F8F40
:100DA0001C6088F31088012040423CBC9046994664
:100DB000A246AB46F8BD5B465B005B44033BD318E1
:100DC0009C70D119D25D002A00D05A705B460B701E
:100DD00074734A465346287D00F0EEFA061EDAD0B8
:100DE0002100286800F052FDEB686A681B19013B7E
:100DF0001B78BFF35F8F0021116088F310880020FB
:100E0000002ED2D118022043CFE7C0462C0200208A
:100E1000FFFFFF0FC10C0010F8B5574645464E4680
:100E2000DE46E0B599460CAB19780DAB1B78050092
:100E300090469A460768002912D1BE7B002E45D005
:100E400074003B68A419033C1B195A783100BA732B
:100E5000002A00D1FA7300229A705A701A7003E0C7
:100E60000E004C006418033C2C4B00229C46AB68DF
:100E700061449C464346090161440B604B464B600C
:100E80000A9B8B600B9BCB603B681B199A705A7056
:100E90001A707B7B9B46002B2CD032005946B868D9
:100EA0007B6898473A68002817D05B4658465B0035
:100EB0005B441419033BA070D118D35C002B00D005
:100EC00063705B460E707B73B34514D030003CBC3E
:100ED00090469946A246AB46F8BD5B465B005B4434
:100EE000033BD3189E701119125D002A00D05A706E
:100EF0005B460B707E7342464B46287D00F05CFAE1
:100F0000041E06D05346002B03D13100286800F0A0
:100F1000BDFC0E9B002BD9D01C70D7E7FFFFFF0F45
:100F2000F0B5DE464E46574645460023E0B58DB047
:100F30000A936B4B8200D3580B90994600239B4633
:100F40004B46079300F0D8F9079C06000F00626833
:100F5000EFF3108572B61368002BFCD022000794C3
:100F6000BFF35F8F2468637B9946002B67D092683C
:100F70005C4B90464B441B01984443461A685B689F
:100F800010001900801BB94100295FDD0B9800F0AB
:100F900013FA00230026984600279A46079C6368A8
:100FA000BFF35F8F5A461A6085F310885346002BB3
:100FB00008D10028C6D10DB03CBC90469946A24647
:100FC000AB46F0BD0A9B414618024B461843D0473A
:100FD000089009916268EFF3108572B61368002BD0
:100FE000FCD00794BFF35F8F0899099A002A48DB69
:100FF000114303D0079B1B69002B5DD1079B1B6826
:10100000DA7B002A07D051008A1819688C464946B5
:101010006244033A51704A46DA734B46079A013BE1
:10102000D168CA5C0132CA545B46079A136153689F
:10103000BFF35F8F5A461A6085F3108882E700235A
:101040000026984600279A460020A7E7002901D1EC
:1010500000289BD10021200000F07AFB43461E6847
:101060005F689B68079A9A464346DB689846D36850
:101070004B44013B1B780A931B020343136100207E
:101080008CE72369002BB9D033003C005B1A9441F4
:101090001A002300A74219D89F421BD05946049139
:1010A0000121039149460291414601915146079819
:1010B0000091FFF7B1FEB7E700F01EF9089A099B0F
:1010C00006000F0092197B419942E5D90122524254
:1010D000D317E3E79642E1D901225242D317DDE765
:1010E000F0080020FFFFFF0F10B5124C6368002BC3
:1010F00004D00A21104800F0F1F910BD23000F4A76
:101100001021206800F042FA032000F0E9F80320E3
:1011100000F0C4F903200A4900F008F9FFF738FD90
:10112000084B9C46032360442375074B8000606096
:10113000DC60DEE72C020020000900208D0C00108E
:10114000210F001040000034F0080020F0B504002A
:101150000D0006267642F717C64636196F4100B5D0
:101160008F4213D810D000F0C7F832003B00121A9B
:101170008B41002B14DC002B37D02900200000F01D
:10118000C5F804BC9046F0BD8642ECD90026002785
:1011900000F0B2F832003B00121A8B41002BEADD5E
:1011A00030003900FFF7A4FD0028E6DB0023984655
:1011B000BC460F4A0F4F7B6A9C4504D8B96A8E42E1
:1011C000DBD99C45D9D11168EFF3108072B60B685A
:1011D000002BFCD0BFF35F8F1368BFF35F8F4146D6
:1011E000196080F3108820BFE5E7002AC5D0D7E753
:1011F000000900200040054070B504000D0000F01B
:101200007BF802000B0020002900801859418B4216
:1012100005D802D0FFF79AFF70BD8242FAD90120AB
:101220004042C117F6E7C046F0B5D6464F4646469F
:10123000C0B5EFF305833F22134018001038EFF3D9
:10124000108C72B6204D2A68002AFCD0BFF35F8F45
:101250000122110081401D4C884661631C49170022
:101260000E788A463100C1400F400A4215D0194914
:101270008200646A51588C4219D3174BD2584346A6
:101280009E4353461E70BFF35F8F00232B608CF389
:101290001088002A06D0904704E0BFF35F8F2F60CC
:1012A0008CF310881CBC90469946A246F0BD0B4AB0
:1012B0009B00904643441A681A60BFF35F8F002377
:1012C0002B608CF31088EDE7280100D0004005402A
:1012D0001B090020040900204C080020D03F0540D5
:1012E00010B50100024A0348FFF718FC10BDC046C4
:1012F000702E001019090020034B596A0A00986AE1
:10130000596A8A42FAD1704700400540064A536A3A
:101310009942FCD807D1044B02E05A6A914202D1AB
:101320009A6A8242F9D370470040054070B50400C4
:101330000D00EFF3108672B61A4A1368002BFCD02A
:10134000BFF35F8F002D1BD0200000F0FDFC16497D
:1013500081420AD0200000F0FFFC0121200000F0B3
:10136000D5FC0123A340114A1360114BA400E550A2
:10137000BFF35F8F00220B4B1A6086F3108870BD9D
:101380000B4BA200D5500122A2400A4920000B7845
:1013900093430B70044900F009FD0021200000F088
:1013A000B5FCE5E7280100D029120010386005409F
:1013B0004C0800201B090020F0B54F46D646464693
:1013C000C0B50700304C616A0D00A66A616AA94287
:1013D000FAD18B4208D805D001201CBC9046994612
:1013E000A246F0BDB242F7D9EFF3108972B6274892
:1013F00001680029FCD0BFF35F8F01252449BD405F
:101400008C460978204C0E002E438846F1B28A465D
:10141000614650460870391D1E48890065630A51AF
:10142000B9000B50216A0020294219D0616A0800D6
:10143000A66A616A8142FAD18B4219D801D1B242BF
:1014400016D8C2451DD0104B1F201D625D630123BD
:101450000740BB40104A1E381360634642461A706C
:10146000BFF35F8F0022094B1A6089F31088B4E73D
:101470000020BFF35F8F0022044B1A6089F31088AD
:10148000ABE70120ECE7C04600400540280100D052
:101490001B0900200409002080E200E010B5EFF3F2
:1014A000108472B60A490B68002BFCD0BFF35F8F23
:1014B00001238340074A0848136202789A43027066
:1014C000BFF35F8F00230B6084F3108810BDC0460C
:1014D000280100D0004005401B090020024B9C461B
:1014E00061448900016070474000003410B5040079
:1014F000FFF74EFB01002000FFF7F0FFFF23A38062
:10150000BFF35F8F10BDC04610B50400FFF740FB6E
:1015100001002000FFF7E2FF01235B42A380BFF33D
:101520005F8F10BD70B505000E001400002924D097
:10153000002A24D080686B689847296800280ED05C
:1015400063001B197200033B9219CB18033A9E707B
:1015500088188A5C002A14D1047030000EE07300F1
:101560009B196200033B1219CB18033A9C70881830
:101570008A5C002A00D05A700670200070BD0800F6
:10158000FCE75A7004703000F8E7C04630B583605D
:101590000023CCB243730133047342608373C4737A
:1015A0000D000068012C06D9421C0133DBB2137018
:1015B00003329C42F9D1FF2129404B0059180023E6
:1015C00040180338437030BDF8B5CE464746060094
:1015D0000C0080B5002907D04D0003686D18033D4D
:1015E0005A195778002F04D120000CBC9046994618
:1015F000F8BD7900C91903398846434459788946AA
:1016000000215970517073683A0021008068984732
:101610003368002814D042469A18947059195B5DBB
:10162000002B00D053700F70270049463000FFF7A1
:10163000CBFF390002003000FFF774FF0400D3E74E
:10164000424641465D19AF709A185B5C002B00D092
:101650006B701470E9E7C046F0B557464546DE4664
:101660004E46E0B50D006B0001685B19DF1E0400FB
:10167000C85D83B00192CA1900284CD043001B18E2
:10168000033BCB185E78B446002E16D1019E002E87
:101690003ED0E67B002E04D073009B19CB18033B91
:1016A0005D70E57300282FD10023537003B03CBC5C
:1016B00090469946A246AB46F0BD72006244033A9A
:1016C00089184A78904600224A7091465A70010063
:1016D00032002000FFF726FF43468246002B07D04A
:1016E0005B0021684344033BCB185A78002A16D18B
:1016F000424651462000FFF715FF2168019BCA1999
:10170000002BC6D10028CFD043001B18033BCB18B9
:1017100000219970C8E7019B002BBAD1C4E75000A3
:10172000801803380918487883464846487058702E
:1017300041462000FFF7F6FE594680462000FFF79D
:1017400043FF414602002000FFF7ECFE8046CFE752
:10175000F0B54E464546DE465746E0B5467B0400AA
:1017600075000068AD19033D83B00191415D4219D8
:1017700000294ED04B005B18033BC3185F78BC4672
:10178000002F18D1019D002D40D0E57B002D04D005
:101790006B005B19C318033B5E70E673002931D1FF
:1017A000002330005370617303B03CBC90469946EF
:1017B000A246AB46F0BD7A006244033A80184278F4
:1017C00093460022427091465A7020003A00FFF77B
:1017D000A9FE5B468046002B07D05B0021685B4476
:1017E000033BCB185A78002A17D15A4641462000AD
:1017F000FFF798FE019B010020684219002BC4D11D
:101800000029CDD04B005B18033BC3180020987013
:10181000C6E7019B002BB8D1C2E7500080180338FF
:101820000918487882464846487058705946200042
:10183000FFF778FE53468346002B07D05B002168F4
:101840005344033BCB185A78002A06D159465246D6
:101850002000FFF767FE8346C7E750008018033873
:10186000091848464F784870587051462000FFF7D5
:1018700059FE390081462000FFF7A6FE49460200C6
:101880002000FFF74FFE8246E0E7C04670B5040037
:1018900000292CD0437B8B422ED00568480040188D
:1018A000033828188278002A21D053009B18033B64
:1018B000EA5CEE188A4202D11BE0002A08D05300ED
:1018C0009B18033BEB185A788A42F6D142785A703B
:1018D00000230122837043702000FFF7BDFE617B6F
:1018E00002002000FFF71EFE6073012000E00020D0
:1018F00070BD43783370EBE701221900FFF7ACFEAF
:1019000060730120F4E7C0462F4B304A70B51A606F
:101910002F4A304B30491A6010008B689843FBD136
:101920002E4C2F4B9C4209D2013B1D1BAD080135AB
:10193000AD002D1908CC9847AC42FBD100F082F8DD
:10194000284A244B1A60244A9368DB018033FBD178
:101950004022254B254C9A675A671A67DA66244B52
:101960009C4214D2013B1D1BED080135ED002D19E1
:1019700004E00834FFF7C8FDAC4208D063792000CA
:10198000002BF6D10834FFF7B1FDAC42F6D1194C6B
:10199000194DA168C022280000F062FFA560FFF782
:1019A000E9F800F03BFBFFF79FFB144C144B9C4203
:1019B00009D2013B1D1BAD080135AD002D1908CC26
:1019C0009847A542FBD170BD00E00040BFCDFBFEB3
:1019D000FE7F3C0000F0004000C0004018070020DF
:1019E00028070020FFFFFF0100F00140080700204A
:1019F0001807002000ED00E000000020280700206C
:101A00002C07002000BEFDE70FB400B5084883B0E6
:101A100000F0FCFF049B002B07D005A918000191E2
:101A200000F08EFB034800F0F1FF00BEFDE7C0466A
:101A3000942E0010A42E001010B50148FFF7E4FF0B
:101A4000A82E001030B50C2083B000F055FBFFF736
:101A500089F800280ED0944B944A1A605A609A6014
:101A6000DA601A615A619A61DA611A62904A5A62BE
:101A700003B030BD8F4CA06700F046FB01228E4BB7
:101A80001A60636C012BFCD103228C4B1A60894ACB
:101A9000936B012BFCD102240121894A894805332B
:101AA000009400F0D7FA0523874A01218748009463
:101AB00000F0D0FA864B5A68FF2A02D880225200E2
:101AC0005A608022784C7D4B21691201804D1A604A
:101AD000002905D0606900F0A9FB01300138FDD173
:101AE000E0217B4B02201A681140802252012A43D8
:101AF00011601968484003210140116004219A686F
:101B00001142FCD08022802192012A4309011160F8
:101B1000802252005A606F4B23616F4B5968FF2936
:101B200000D85A6003226C48634B01211A600200FE
:101B300093681942FCD0E02513681D4080235B01A7
:101B400003431D6012684A400321114019600221BD
:101B5000614A93681942FCD0802380219B01034392
:101B60000901196080215D4B4900516063615C4B44
:101B70005A68FF2A00D8596080225A4BE169120145
:101B8000574D1A60002905D0606900F04FFB013005
:101B90000138FDD1E02252490B681A4080235B01D5
:101BA0002B431A60802380229B012B4312011A6071
:101BB00080223E4B52004A60E3614B4B5968FF293B
:101BC00000D85A608022494B216A1201464D1A60A2
:101BD000002905D0606900F029FB01300138FDD1F2
:101BE000E02241490B681A4080235B012B431A60B5
:101BF000802380229B012B4312011A6080238022C4
:101C00005B004B60294BD2022362394B59689142E9
:101C100000D25A608022374B616A1201344D1A603B
:101C2000002905D0606900F001FB01300138FDD1C9
:101C3000E0222F490B681A4080235B012B431A6076
:101C4000802380229B012B4312011A608023DB0238
:101C50004B60174B6362284B5A68FF2A02D88022D8
:101C600052005A608022254BA1691201224D1A6050
:101C7000002905D0606900F0D9FA01300138FDD1A2
:101C8000E0221D490B681A4080235B012B431A6038
:101C9000802380229B012B4312011A6080235B006A
:101CA0004B600E4BA361E3E65C080020006CDC0295
:101CB0001BB70000008000403CB0004030B0004046
:101CC000002F68590080024000389C1C00C0024070
:101CD00030800040001BB7003C8000404059730733
:101CE0005480004054B000406080004060B000402C
:101CF0006C8000406CB000404880004048B000401C
:101D0000014B8000C05870475C08002001238340CD
:101D1000002904D0034A1360034A13607047034A42
:101D20001360FBE780E200E000E100E080E100E01A
:101D300001228240034B1B681340581E8341D8B2D6
:101D40007047C04600E100E0024B10309B68800005
:101D5000C058704700ED00E070B50D00EFF310863D
:101D600072B60F4A1368002BFCD0BFF35F8F0D4B88
:101D700010309B6884001B590B4A934203D09D424C
:101D800001D0FFF759FE074B9B681D51BFF35F8FD2
:101D9000BFF35F8F0022024B1A6086F3108870BD7C
:101DA000240100D000ED00E0CD010010F0B5DE46CA
:101DB00057464E464546E0B50C0083B0EFF3108A17
:101DC00072B65B4A1368002BFCD0BFF35F8F102202
:101DD000914681444A46574B96009B689D59564B05
:101DE00098469D4205D0A54216D0544FEB1B2F2B91
:101DF00014D9504B9B689D51BFF35F8FBFF35F8F2A
:101E000000224B4B1A608AF3108803B03CBC90460A
:101E10009946A246AB46F0BD1D00EAE70123834088
:101E20009B465A46464B1B681A4000925A46454B01
:101E30001A60BFF35F8FFEF716FA0190002803D0F7
:101E4000814501D0FFF7F8FD01232A009A431300D2
:101E5000DB1B5B4142495943090D93689C4208D101
:101E60005BE043001B189B00FB189868A04211D050
:101E70001A00062010560028F3DA009B002B05D02C
:101E80005A46314B1A602E4B1A60B2E75A462D4B18
:101E90001A60AEE706201856002822DB420011180F
:101EA00089007C188846A1689960E179D97106217A
:101EB00061569971A1797F291FD8A488F91A640500
:101EC000241544440919E0240905490D240221433D
:101ED000998012181D4B9200BF181A781870BA71A9
:101EE000CBE7019800280BD1FF3090711848908003
:101EF000164A107811709871BFE7BD210902E7E713
:101F0000144A1549D21A083A5002400D01439980EB
:101F1000124952080A43DA80AFE706201056130030
:101F20000028BBDA019A002AEAD14546E0E7C0461C
:101F3000240100D000ED00E0CD010010540200208B
:101F400000E100E080E100E080E200E01A0900200A
:101F500000BDFFFF8E02002000F0FFFF00F8FFFF32
:101F6000AAAA0000F8B5012504000543FEF77BF995
:101F70000200EFF3108672B621490B68002BFCD0EB
:101F8000BFF35F8F1F492000401A4041224B43435B
:101F90001B0D1D48920087685BB2BF58AF421CD032
:101FA00006228A569A421CD012228A569A4222D07F
:101FB0001E228A569A4220D02A228A5603209A420A
:101FC00010D0124A11781370A171BFF35F8F0022F5
:101FD0000B4B1A6086F31088F8BD81680C48885056
:101FE000EFE700204200121892008918FF228A7140
:101FF000084A8A80E5E70120F4E70220F2E7C046BC
:10200000240100D05402002000ED00E01A09002055
:10201000CD01001000BDFFFFAAAA0000F0B500220C
:102020000324FF27802620003D00094B11009C4619
:102030001040C0008540A14361440B680132AB43AE
:10204000350085402B430B60202AECD1F0BDC04603
:1020500000E400E0F8B504000C2017001D000E009D
:1020600000F0E4F84101091A8B01591AC900091856
:102070008901380000F0DAF8069A2B0412031343A2
:102080002268002A21DB184AA21851424A418021C5
:1020900049018C4652420A40144962440A6014497C
:1020A0000A60144917008D68AF43FBD1C021221D7F
:1020B0008901114321222660A0600A602268002A5B
:1020C000FCDAE36008230B60F8BD3F2221680A4078
:1020D000B242D8D1A2681205120D8242D3D1E26871
:1020E000002BD0D1F0E7C0460040FDBF00E000402B
:1020F00000F0004000C000408023024A9B000343E0
:10210000D362704700800540AA23064A1B01136072
:102110002F230549D360054B19605368002BFCDA67
:102120007047C0460040024000B0FA000060024024
:1021300010B5002800D110BD00F05AFCFBE7C046E6
:1021400010B5094A0300146884B0002C08D001229D
:1021500000910648524203A9A047012004B010BDD7
:1021600000F054FC0020F9E7CC08002031210010D9
:1021700001480421014B1847A0020020A1210010B2
:10218000142310B50100188804331B88984710BD2C
:10219000162310B50100188802331B88984710BD1C
:1021A000F0B5C64600B5002916D014230400012559
:1021B00098461827890046184346216818883B88A6
:1021C000984701C4431E984140420540A642F3D1BE
:1021D000280004BC9046F0BD0125F9E7124A936F30
:1021E0009B0815D29066D166002905D0FFE7FFE76E
:1021F000FFE7516F106F704704B580210906C217C1
:102200005140002800D0C84300F012FE002104BD58
:10221000F0B5146E556E576F166FFFF7E3FF146637
:10222000556657671667F0BD000000D0114A936FDE
:102230009B0813D210665166002905D0FFE7FFE71F
:10224000FFE7516F106F704704B5002801D00020E0
:10225000C04300F0EDFD002104BDC046F0B5146E92
:10226000556E576F166FFFF7E5FF14665566576793
:102270001667F0BD000000D094464E4A926F920857
:10228000624601D230E0C046F0B54A4EB56F6D08E7
:10229000FCD3346E756E776F366F00F025F8944678
:1022A000444A14665566576716676246F0BDC046D5
:1022B0009446404A926F9208624601D258E0C04666
:1022C000F0B53C4EB56F6D08FCD3346E756E776F0C
:1022D000366F00F04DF89446364A146655665767D7
:1022E00016676246F0BDC046002B24DB11D00029E2
:1022F0003EDA00B5C943404200D1013100F038F860
:10230000C943404200D10131DB43524200D1013385
:1023100000BD002AEBD1002801D1002905D0002002
:10232000C90FC90701D1C043410800B500F078FDCD
:102330000022002300BD00B500290ADBDB43524226
:1023400000D1013300F014F8C943404200D10131FB
:1023500000BDC943404200D10131DB43524200D1AC
:10236000013300F005F8DB43524200D1013300BDD8
:10237000002923D1002B18D1002A0CD0BC460D4FC8
:1023800038667A6600210023FFE7FFE7FFE77A6FF0
:10239000386F67467047002801D00748010000B534
:1023A00000F03EFD0022002300BD02000B000020D3
:1023B00000217047000000D0FFFFFFFF002B00D07E
:1023C000BDE0130C26D1002AE7D080B4104F396647
:1023D0007A66FFE7FFE730B4040C7B6F396F1B04AC
:1023E00023433B66FFE7FFE7FFE7C04684B27B6F0E
:1023F0003D6F1B0423433B66FFE7FFE7C046002316
:102400002C042D0C7A6F386F00196941B0BC7047ED
:10241000000000D0F0B594460025140E01D1120240
:102420000835140F01D112010435940F01D1920027
:102430000235D40F01D152000135D40B0134254FA0
:102440007C66254C3C660E0C93B2FFE7FFE7FFE786
:102450003C6F6643360C7703BE467343DF0B5B0469
:10246000C01AB941130C7343DB18C91ACE0866436E
:10247000360CB64493B273431F0F1B01C01AB94107
:10248000130C73431F0B1B05C01AB941860D8F0235
:102490003E436643360C092D24DB520A7243801AF0
:1024A0007703460A6643360C16235B1BDE40DF408B
:1024B000BF1964466643821B70460435063301002B
:1024C000D940A840C01900D30131A24206D200234E
:1024D000F0BD0000000000D0FFFFFFFF121B013025
:1024E000F3D3F1E709277F1BFE406446A2B2724393
:1024F000801A00D20139220C7243130C1204821A82
:1025000099410B007046043513370100F940A8408B
:10251000801900D30131002B02D1A2420AD2F0BDB2
:10252000013000D30131121BFAD2013BF8D1A24293
:1025300000D2F0BD013000D30131121BF7E7F0B536
:102540001C0C00D080E00CB400251C0A04D11B0236
:10255000160E3343120208351C0B04D11B01160F53
:102560003343120104359C0B04D19B00960F334377
:1025700092000235DC0B02D192185B4101351C0040
:10258000971864410134464F7C66464C3C660E0CFD
:10259000FFE7FFE7FFE7C0463C6F6643360C770373
:1025A000BE4697B27743C01B00D20139C01B00D290
:1025B00001399FB27743C91BC91B170C77437E04AF
:1025C000FF0B801BB941CE086643360C0C2D33DB64
:1025D000B644120B1F053A431B0B97B27743C01B3F
:1025E00000D201399FB27743C91B170C77433E04D1
:1025F0003F0C801BB941860D8F023E43664329275D
:102600007F1BFE400C3D7746AF40BF1930BCA2B2E5
:10261000ABB272437343801A9941220C7243130C7C
:102620001204801A994102000B000137001BA941D6
:10263000F9D2781E0021F0BD0C277F1BFE407746A3
:102640007F0BAF40FF19E0E700245D1C07D0144F5B
:102650007D663966FFE7FFE7FFE7FFE73C6F95B26E
:102660009EB265436643401BB141150C1E0C654389
:10267000664336042F0C3E432D04401BB141994262
:1026800004D202000B0020000021F0BD01D19042D5
:10269000F7D3801A994101349942F2D3F6E700004A
:1026A000000000D0FFFFFFFF132370B51D78012D40
:1026B00010D00BDD2448FFF76BFD244C0100802275
:1026C000200000F0CDF8022D01D070BD1F4C204A33
:1026D000A264FAE72E001D4C1D4AA3085B421E406F
:1026E0001D422FD0330022602020B1006118801BD2
:1026F0000A604A608A60CA600A614A618A61CA6186
:102700000A624A628A62CA620A634A638A63CA6365
:102710000A644A648A64CA640A654A658A65CA6545
:102720000A664A668A66CA660A674A6740081028C7
:1027300003D18A67CA67A264C7E71E339B00E250D1
:10274000A264C2E70023CFE7534400002009002021
:102750005527001007B5604601880A0A0230DF2AB3
:10276000FAD1C9B2820804D3028840880004104319
:1027700000E00068014A5050039007BD2009002086
:1027800051434343C9188C46110C83B24B4310B4D8
:10279000040C614392B280B2504362431C041B0C90
:1027A000001910BC59411304120CC0185141614466
:1027B00070470000132310B512481C78FFF7E8FC9F
:1027C0000100012C0AD003DD80220F4800F048F8F8
:1027D0000E48FFF7D5FC0E4B186010BD0A4C542272
:1027E000200000F03DF80B4B6365A365E3652366AD
:1027F0006366A366E36623676367A367E367236291
:10280000E361E5E753460000200A00204C33000056
:10281000200B00201928001007B5604601880A0A1D
:102820000230DF2AFAD1C9B2820804D30288408874
:102830000004104300E00068014A5050039007BDB7
:10284000200A002001480421014B1847B002002053
:10285000A1210010014B1B6818470000B0020020A6
:10286000014B5B6818470000B0020020F8B54746EE
:10287000CE460D0080B516000700002A20DD4B1E55
:1028800098461A4B002400209946002C2BD0434632
:102890001B5D0D3B5A425341DBB22A5D0A2A13D01D
:1028A0000134A642F1DC864203DD311A3B68281868
:1028B0009847AD19013D2B780D3B5A4253413B746B
:1028C0000CBC90469946F8BD002BE9D1A04203DA32
:1028D000211A3B6828189847484602213B68013472
:1028E00098472000DDE73B7CD7E7C046282F001043
:1028F000F0B557464546DE464E46D023E0B51B06AA
:102900001C68374B83B007000D00180001A99046E2
:102910009A4600F095FA8146002808D1019B64B2DE
:102920009C4204D0504600F09BFA012399466B1C50
:1029300003D1380000F036FA05002A4B1C68002C41
:102940002FD00A23284E9B4602E0E468002C28D0B2
:102950002268002AF9D03368002B01D0A342F4D1B9
:10296000637C002B2AD02A0039002000FFF77EFF6D
:102970004346002BE9D06B465A461A71637C002B04
:1029800020D0237C002B26D00121236801A8984762
:102990006B461B790D3B5A4253412374E468002C6B
:1029A000D6D14B46002B12D1681E8541E8B203B048
:1029B0003CBC90469946A246AB46F0BD2900380083
:1029C0009047D5E70121236801A89847BDE7504605
:1029D00000F01EFAE8E70221044823689847D7E789
:1029E00010070020C4080020C8080020282F00106D
:1029F00010B582B06B4604000022D81D012104707E
:102A0000FFF776FF200002B010BDC04670B504008D
:102A100000F0C8F90122010005002000FFF768FF5F
:102A2000084B1C68002C06D06368002B05D0984723
:102A3000E468002CF8D1280070BDE468002CF3D1C4
:102A4000F9E7C046C40800200D4A1368002B13D0D4
:102A5000834202D109E0984208D01A00DB68002BBB
:102A6000F9D1002900D0D06070471A000029FBD1AD
:102A7000DB68D360C160F7E70029F5D01060F3E7A9
:102A8000C408002010B500F043F810BDF0B50D1ECD
:102A900015DD0E4B0D271A680D4B4519D3185942F9
:102AA0004B410C495B005E5E20210478A64207D0B2
:102AB00093691942FCD101301460A842F5D1F0BDF0
:102AC00093691942FCD11760F2E7C046140900204F
:102AD0000080FCBF1C09002030B50500002912DD74
:102AE00000201024094B013D1A6893691C4208D14B
:102AF000013093691C42FCD113682B548142F4D1FC
:102B000030BD0028FCD103204042F9E71409002021
:102B1000E12110B50B4B0C481B780C4B49021B787C
:102B20000B4B1860FEF740F802210020FDF794FFE0
:102B300002210120FDF790FF01210648FFF784FFE5
:102B400010BDC0468C2F001000400340902F001095
:102B500014090020C002002001230121084A13604B
:102B6000084A1360084A080093689843FBD1074A53
:102B700011608021490013680B42FCD07047C046A9
:102B800000E0004000F0004000C0004000C00440F1
:102B9000F8B557468246374B454653445A4253414F
:102BA000802292029446DE464E465B42324A1B0425
:102BB0006344E0B51360314A8846314913601D0013
:102BC0008A689543FBD10620FFF79AF843464146B1
:102BD00081468020DF0D5E028A029B0D02214000AB
:102BE00005E0914507D392197B4181423DD00C000D
:102BF0000231002BF5D0802627023F1B760002E031
:102C00003F1B012E33D039004846B346013EFFF743
:102C10000DFB8045F4D259466143350253461C6191
:102C20001B6852465D40FF231B021D408023072086
:102C30005B0113431D6012685040CF2202401A60AE
:102C40005246802303209B0124321A4310605246CF
:102C5000101D1843022303604846FFF7E7FA3CBC07
:102C600090469946A246AB46F8BD0C00C3E721004A
:102C7000D4E7C0460040FCBF00E0004000F0004048
:102C800000C0004003BDC04610B50400FFF7C6F900
:102C9000A04710BD70B501230024002586B0059023
:102CA0000F2000940195029303920491FFF740F8DE
:102CB000002106000F20FFF729F8D023002500206F
:102CC00001211B060234002D14D01A6D1442FCD0D1
:102CD0005D6540BF1A6D114203D120BF1A6D1142CC
:102CE000FBD09A6DAA420AD000206D468200AD58F2
:102CF000E9E79A6D1A6D1142FBD140BFE5E701305B
:102D00000528F2D931000F20FFF700F806B070BD9A
:102D10000B4B0C4A10B5934201D201235B421900C0
:102D2000094A985004329B50084A094B0948CA5036
:102D3000094B9A68044B9C466144FFF7ABFF10BDFA
:102D40000008042000000420F4070000892C001073
:102D5000FC070000852C001000ED00E00022034B72
:102D60001B68A83318605A607047C046D80200201C
:102D7000094B10B51C68094AA83420686168084BE3
:102D8000FFF7FEFC0122002380185941206061609A
:102D90004800400810BDC046D80200202D7F954C49
:102DA0002DF4515810B5830727D00378002B26D077
:102DB0000300032102E01A78002A1CD001330B42E1
:102DC000F9D119680F4A104C8A188A4322420FD150
:102DD000043319680B4A8A188A43224208D1043303
:102DE0001968084A8A188A432242F1D000E0013368
:102DF0001A78002AFBD1181A10BD0300E1E7002061
:102E0000FAE7C046FFFEFEFE80808080F8B5C0462F
:102E100001B40248844601BC604700BF7D01002028
:102E200001B40248844601BC604700BF250200206F
:102E300001B40248844601BC604700BF250200205F
:102E400001B40248844601BC604700BF2101002054
:102E500001B40248844601BC604700BFD90100208C
:102E600001B40248844601BC604700BFC100002095
:102E7000486172647761726520616C61726D2025B2
:102E80006420616C726561647920636C61696D6551
:102E9000640000000A2A2A2A2050414E4943202A71
:102EA0002A2A0A000A0000004861726420617373D4
:102EB0006572740052656C6561736500626F6F7452
:102EC000325F77323571303830000000302E3100FB
:102ED000312E322E300000007069636F0000000058
:102EE0007069636F5F6375626500000041756720FC
:102EF000313120323032310006005250BBFF3CB637
:102F0000D82E0010060052503ABCA911CC2E001049
:102F100006005250E182887FBC2E001006005250FD
:102F2000D3F07542B42E00100D0A000055415254E2
:102F300020737464696E00005541525420737464A8
:102F40006F7574005541525420737464696E202F5C
:102F5000207374646F7574000600525053B4F4A16A
:0C2F6000442F00100800525092000000A6
:102F6C00B4020010A80200109C020010F82E0010F1
:102F7C0090020010042F0010102F00101C2F0010B6
:082F8C00582F0010642F001003
:102F940070B5D024002524060268EFF3108172B6C0
:102FA4001368002BFCD0BFF35F8F04230022C356A9
:102FB400A2565E1C16D093420CD14379012B09D939
:102FC400013B43710368BFF35F8F00221A6081F3F2
:102FD400108870BD0368BFF35F8F1D6081F3108894
:102FE40020BFD9E743790271002BEBD0E8E7C04654
:102FF400030030B50068EFF3108472B60268002A4B
:10300400FCD0BFF35F8FD02200201206105604229A
:103014009A56551C14D082420BD0002913D000209C
:103024000A601B68BFF35F8F00221A6084F3108864
:1030340030BD58790128F0D9013858710120F0E7E2
:1030440018710120EDE70020EBE7C0460268EFF3BA
:10305400108172B61368002BFCD0BFF35F8F4379E5
:10306400002B0CD00133DBB24371FF2B11D003686A
:10307400BFF35F8F00221A6081F310887047FF222C
:1030840002710268BFF35F8F136081F3108840BF41
:10309400F4E703710368BFF35F8F00221A6081F3C2
:1030A400108840BFEAE7C04630B50400101E0AD0BD
:1030B4000D008A180221E3681942FCD02B780135EF
:1030C400A360AA42F7D1E3685B0704D50421A3688F
:1030D400E3681942FBD11021E3681942FCD1E3688B
:1030E4005B0704D50421A368E3681942FBD10123DB
:1030F400236230BD7047C046011000004402002026
:1031040000000000300700208408002000000000B8
:1031140000000000940800200000000000000000EF
:10312400100000000000000000000100000000008A
:103134000000000000000200000000000000000089
:103144000000030000000000000000000000FF0079
:103154000000000000B5486801318E460047704603
:1031640009380149884700BD651F001000000000B0
:10317400503300004C33000054330000523300003D
:103184004D5300004D43000053340000433400000D
:103194008D2A001000000000D92A00100000000051
:1031A4000001000000000000E00200200000000018
:1031B40000000000CC050020340600209C060020FE
:1031C40000000000000000000000000000000000FB
:1031D40000000000000000000000000000000000EB
:1031E40000000000000000000000000000000000DB
:1031F40000000000000000000000000000000000CB
:1032040000000000000000000000000000000000BA
:1032140000000000000000000000000000000000AA
:10322400000000000000000000000000000000009A
:10323400000000000000000000000000000000008A
:10324400000000000000000000000000000000007A
:103254000000000000000000010000000000000069
:103264000E33CDAB34126DE6ECDE05000B0000002E
:10327400000000000000000000000000000000004A
:10328400000000000000000000000000000000003A
:10329400000000000000000000000000000000002A
:1032A400000000000000000000000000000000001A
:1035E40000000000000000004528001071210010B8
:0C35F400A9260010B527001039030010B4
:04000005100001E9FD
:00000001FF
